:100000000080001049380000793800007B3800007B
:100010007D3800007F3800008138000000000000BB
:100020000000000000000000000000007D3700001C
:100030008538000000000000E73700001D38000090
:100040008B3800008B3800008B3800008B380000A4
:100050008B3800008B3800008B3800008B38000094
:100060008B3800008B3800008B3800008B38000084
:100070008B3800008B3800008B3800008B38000074
:100080008B3800008B3800008B3800008B38000064
:100090008B3800008B3800008B3800008B38000054
:1000A0008B3800008B3800008B3800008B38000044
:1000B0008B3800008B3800008B3800008B38000034
:1000C0008B3800008B3800008B38000010B5054CD1
:1000D000237833B9044B13B10448AFF300800123F4
:1000E000237010BD6001001000000000B84B00003C
:1000F0000C4B43B10C4810B50C49AFF300800C48D1
:10010000036823B910BD0A48036833B97047094B27
:10011000002BF7D0BDE810401847064B002BF5D058
:10012000184700BF00000000B84B00006401001039
:100130005C0100100000000043680B7043681B0A5C
:100140004B70C3888B70C379CB7083680B718368E5
:100150001B0A4B7143898B71C37A0820CB7170479E
:100160000B7843604A7843EA022343608A7843EA83
:1001700002434360CA7843EA026343600B798360B9
:100180004A7943EA022383608A7943EA024383601F
:10019000CA7943EA026383600820704700487047C9
:1001A000A1470000004870478047000000487047A2
:1001B0001247000000487047F146000000487047B1
:1001C000DE46000000487047BD460000004870470A
:1001D0002B470000004870479C46000043680420FD
:1001E0001A0A0B704A701A0C1B0E8A70CB7070477B
:1001F0000B684360042070470048704701480000C6
:1002000000487047E047000043680B7043681B0AD2
:100210004B70C3888B70C3790420CB7070470B7808
:1002200043604A7843EA022343608A7843EA024300
:100230004360CA7843EA02634360042070470000C9
:1002400000487047D047000000487047AF470000A3
:1002500070B5054600F10C042046FFF7C9FF6B6935
:100260002046BDE8704018478069704700487047D5
:100270000148000000487047E047000041F2A40335
:10028000C05C7047C36810B41A6814680A46816875
:100290001846234610BC184708B50C4943680C485B
:1002A0004B60FFF7EFFF0B490B48FFF7EBFF0B4BE2
:1002B0005A6911685A6811420CBFDB681B691A60E1
:1002C000044A53680133536008BD00BF9801001011
:1002D000B0120010900100107C010010A00100106D
:1002E0000023013821FA03F20833202B00F8012FF4
:1002F000F8D1704743682DE9F0410B7043680D4613
:100300001B0A4B70C3880A1D8B70C3790446CB70DF
:1003100000216068531B814202F104020FD2E3689E
:1003200053F821300131180A02F8043C02F8030C9A
:10033000180C1B0E02F8020C02F8013CE9E72269D6
:10034000EA542169EA18090A5170618A04339170EC
:10035000E17C2B44D170002122695E1B914203F1A4
:1003600004030FD2A26952F821200131100A03F8C8
:10037000042C03F8030C100C120E03F8020C03F803
:10038000012CE9E70027E369AB55E269AB19120AD2
:100390005A70E28B04369A70E27FDA70E3699F420A
:1003A00014D2636A53F8270003F037FF80460146F2
:1003B000A819FFF795FF636A043653F82710A819A8
:1003C000424603F039FC46440137E7E73046BDE8D2
:1003D000F081F8B50E460379054606F8013B8068C2
:1003E0000F4603F01AFF044601463046FFF778FF38
:1003F0002246A968781D03F01FFC601DF8BD8388A4
:100400002DE9F0410B70838805461B0A4B7080680C
:100410000C4603F002FF07460146A01CFFF760FFF1
:100420003A46A968A01D03F007FCE86803F0F5FE52
:10043000064607F1060801460A3704EB0800FFF7F5
:100440004FFF3246E968E01903F0F6FB286903F034
:10045000E4FE3E4407460146A0190436FFF740FF7C
:100460003A46A019296903F0E7FB6B693E44A3559E
:100470001A0A344462701A0C1B0EA270E370301D0D
:10048000BDE8F081002310B50360013911F8012F98
:1004900002FA03F4026808332243202B0260F5D1EC
:1004A00010BD37B50C4611F8013B0546037101A894
:1004B000FFF7E8FF019B621D581D111B884204D9FC
:1004C00012F8011B02F8021CF7E70022234404344F
:1004D0001A71AC6003B030BDF0B50C460B7885B036
:1004E00083804A78064643EA02238380023101A8CA
:1004F000FFF7C8FF019FA31DBD1D1A1B954204D91C
:1005000013F8012B03F8022CF7E70022E3195A71C4
:10051000631DB360611902A8FFF7B4FF2B1D029D94
:1005200007F10A021D442244111B8D4204D912F81E
:10053000011B02F8021CF7E70022013B611923446A
:1005400001F8012C03A8F360FFF79CFF0398043522
:10055000284463191A1B904204D913F8012B03F89D
:10056000022CF7E70023013D2218254402F8013C44
:100570003561937851781B0443EA0123215CD278DA
:100580000B4343EA02630430736105B0F0BD2DE90B
:10059000F34143680D6804469D420E4604D9A90004
:1005A000C06803F0DFFDE06000216560321D606817
:1005B000931B814202F1040213D212F8023C12F89A
:1005C000030C1B0443EA002312F8040C034312F843
:1005D000010C43EA0063E068A36040F82130013178
:1005E000E5E7F21895785078F15C2D0445EA00258E
:1005F000D2780D431F1D236945EA02659D4204D947
:10060000A900A06903F0AEFDA06100212561F319E6
:1006100022699D1B914203F1040313D213F8022CAB
:1006200013F8030C120442EA002213F8040C0243EC
:1006300013F8010C42EA0062A069626140F82120CF
:100640000131E5E773199F785978725D3F04DB78D3
:1006500047EA0127174347EA0367E36904359F42E6
:1006600004D9B900606A03F07DFD6062E76100278C
:10067000B846E3699F421AD2711901A8FFF702FF39
:100680002B1D019DF2181D44911BA94204D212F8A2
:10069000011B02F8021CF7E7721902F8018C013BFA
:1006A000626A3344236242F827300137E1E7284683
:1006B00002B0BDE8F081000030B50A4B85B00446B9
:1006C000019300230293039354F8603B01AA1B6833
:1006D0000A2105469847204602F0E0FD286705B04C
:1006E00030BD00BFCC4500002DE9F04100F5845439
:1006F0000022264605464FF40067294B86B000933A
:10070000284BADF804200293039304930592083616
:100710002368BBB19A685868ADF804201A6803686A
:1007200002929B6898472368039058680368DB68C7
:10073000984721682B68049005971B686A460969E9
:10074000284698470434B442E2D14FF4006705F5D7
:10075000845610362068C8B14368ADF80430836809
:10076000029303689B689847039020680368DB68DE
:1007700098472B6804902068D3F800800368059799
:100780005B6898476A4601462846C0470434A6423B
:10079000E0D1012241F2A403EA5406B0BDE8F081A1
:1007A000E445000099480000F0B5204B85B0019366
:1007B00000230E46044600F1600528460293039389
:1007C00002F06CFD31464FF47A76226F871A01A849
:1007D000FFF7C6FCB7FBF6F2029B2846134406FB64
:1007E00012720293124F039B07FB0232039202F034
:1007F00055FDB0FBF6F3029A0399013AD21A6267EB
:100800000C4A06FB13030A44214607FB132304F199
:10081000740041F8783F00F0F1FA284602F03EFDFE
:1008200041F2AC03E05005B0F0BD00BFCC45000084
:1008300040420F0000CA9A3B2DE9F341564D574BF9
:100840002846002440F8043B0423554A554905F145
:1008500060068DE818004FF4807300F0A3FB30466B
:1008600002F032FD4FF4612330464FF40066EB6531
:1008700002F0E8FC3246214605F180002C676C67E7
:10088000AC67EC6703F0FDF93246214605F50860D8
:1008900003F0F7F905F584531C605C6041F28803AE
:1008A000EC50EA1841F29003EC5041F29403EC5002
:1008B00041F29803EC5041F29C03EC5005F585534E
:1008C0001C6041F2A403EC5441F2A803EC5041F245
:1008D000AC03EC5041F2B003EC5041F2B403EC54E1
:1008E00041F2B8035460304A0026EA5041F2BC039A
:1008F000EC5005F586531C6041F2C403EC5041F204
:10090000C803EC5041F2CC03EE5041F2D003EC505E
:1009100041F2D403EC5041F2D803EC5041F2DC0335
:100920004FF01808EC50214A2149284602F0CEFE2B
:10093000204D214B214A224F2249156083E80600B1
:1009400056602146424638461C6103F09AF9384603
:100950001D4F1E4900F067FC42462146384603F011
:1009600090F91B49384600F05EFC1A4A1A4B1B49A5
:1009700082E818001A4B83E806001C61194A1A4BDA
:100980001A601A4ADD605A6101229A61184A1E6192
:100990009A6002B0BDE8F081D00100105C46000012
:1009A00003C0092002C0092014460000C80000103E
:1009B000BD0D00002C460000B01200109801001080
:1009C000A001001080460000B801001032C00920CC
:1009D00034C0092090010010444600008946000000
:1009E0007C01001070460000C41200109902000043
:1009F00091460000F0B5632985B004460E4604DD3B
:100A000041F2A403C55C002D4DD0136804F68701A4
:100A10001B6810469847FF2384F88038FE23C0F3F4
:100A2000072284F88138C3B284F882381344DB4348
:100A300084F8832884F884380522002384F88568A4
:100A400046F3072684F8866804F68501861DB242BF
:100A500004DC11F8015B01322B44F8E7DB4300F1C1
:100A60000805B5F5006F204480F887380CDC04F5E4
:100A700008673E460434F31B9D4214DD16F8011B43
:100A8000204600F0FCFAF6E7084B01AA0193032385
:100A90008DF80830064B07210393236820461B6816
:100AA00098474FF0FF35284605B0F0BDFC450000E3
:100AB000474700002DE9F04100F160070446384641
:100AC00002F0ECFB41F2AC0342F6F822E358064692
:100AD000C31A934282BF002241F2A403E25441F2BE
:100AE0009003E25832B141F2B002A25882423CBFB8
:100AF0000022E25004F584551035E36FC3B904F1C8
:100B00000408404600F088F9E8B941F2A403E05C2B
:100B100060B141F2A80540F6C4126359F31A93423A
:100B200003D92046FFF7C8FD66510020BDE8F081DB
:100B3000384602F0B3FBE36F801B9842DFD96FF0B9
:100B40000100BDE8F081404600F06EF90028DCDBD2
:100B500004F585521368D5F800800344B8F1070FF7
:100B6000136011D141F29C02A358591CA15041F2CB
:100B70009402234483F88000A358013BA350002B28
:100B8000BBD108232B60B8E7B8F1000F16D1FF28BE
:100B900007D1012341F2B0022B6006F11403A350E8
:100BA000ABE7384602F07AFB41F28833801B98426B
:100BB000A3D941F2A40304F80380C0E7B8F1010F00
:100BC0000ED1FE2801D10223DCE700232B6041F285
:100BD000A403E35C002B90D12046FFF76DFD8CE76A
:100BE000B8F1020F0AD141F294030021E05041F222
:100BF0009C03E15003232B6010607EE7B8F1030FE4
:100C000007D141F29402A35803EB0020A050042323
:100C1000B8E7B8F1040F09D15A42D2B2DBB258BFDB
:100C20005342FF2B0CBF05230023ABE7B8F1050FA0
:100C300004D141F29803E0500623DCE7B8F1060F37
:100C40000BD141F29802A35803EB00200723A050D8
:100C50002B6041F29403E35891E7B8F1080F7FF459
:100C60004CAF0021CA1AD2B2DBB258BF5342FF2B9D
:100C700029607FF442AF41F29803E3587BB92046E4
:100C8000FFF71AFD2046FFF72FFD41F2A803E650BB
:100C900041F2AC034FF0FF30E650BDE8F0810A2B83
:100CA00005D104F180012046FFF77EFD25E7062BE4
:100CB0000BD104F5855004F180011830FFF767FC73
:100CC000012241F2B403E25417E70B2B03D141F2A6
:100CD000A403E15411E703F2BE3354F823000028C3
:100CE0003FF40BAF036804F180011B68984704E7E9
:100CF0002C4C08B5E16D201D02F037FB002341F2BA
:100D00009002A35041F29402A35041F29C02A350DE
:100D100041F2980204F58451A3500A68234608461C
:100D200022B141F28402A25842B901221E4902F5C1
:100D30008464663243F824108A60CB6041F28802F2
:100D40009A5822B141F28C029A583AB901221749B5
:100D500002F22244643243F824104A60026822B14D
:100D600041F284029A5842B90122114902F5846085
:100D7000663243F820108A60CB6000220D4B094D8B
:100D80000D4C5A602846FFF795FE0A2002F092FBB0
:100D900063691A6863681A420CBFE26822691360CB
:100DA000F0E700BFD0010010B0120010C412001014
:100DB0007C01001090010010B801001010B504462D
:100DC000034B40F8043B00F079F8204610BD00BF0B
:100DD0005C4600000748084A08B5121A002102F0D4
:100DE00050FF02F02DFC02F0E5FE02F030FC02F0B4
:100DF0006FFC00BF60010010D42F001030B50D68EB
:100E0000044C0268B5FBF4F31A4404FB135302606C
:100E10000B6030BD00CA9A3B426B806B101A18BF42
:100E20000120704701207047034610B5826B016BAB
:100E3000501C9863885CDA6B9C6B013AB4FBF2F14E
:100E400002FB11429A6310BD034610B107C983E843
:100E50000700704770474268816812F0010F4FEA3F
:100E6000620203681CBF8858C35888181847C368B3
:100E700010B504460BB19B689847204610BD000092
:100E800070B50546074B064645F80C3B45B100F1E9
:100E90002C04AC4204D0103C2046FFF7E8FFF8E7F2
:100EA000304670BDF04A000010B50446FFF7E8FF79
:100EB000204602F029FC204610BD000030B5002578
:100EC0000446124B85B003602A466946039502F03A
:100ED0009DFA6846FFF7CBFF01226946204603953D
:100EE00002F094FA6846FFF7C2FF04F1400000F0F8
:100EF00045F904F1300000F041F9054B204623602C
:100F0000FFF7BEFF204605B030BD00BFA44800007B
:100F1000CC4A000010B50446FFF7D0FF204602F08F
:100F2000F3FB204610BD30B5044685B0051D2846AC
:100F300001F0B0FFF0B1626CA36C9A4210D0A36CC8
:100F4000226C591CA164D15CE36CA06C013BB0FB2A
:100F5000F3F203FB12032846A36401F0C1FFE6E7A6
:100F60000023204601226946039302F04FFA6846A7
:100F7000FFF77DFF05B030BD10B586B08DE80C00E1
:100F8000019B02920393064B04919DF8202002A935
:100F9000059302F03BFA02A8FFF769FF06B010BD07
:100FA000144800007FB504461D464FF41653089EB2
:100FB00002F0AEF920460E4B294640F8303B00F0D7
:100FC000ECF806FB05F104F1400000F0E6F8094BEF
:100FD0002046029300230393009304AB13E90C0013
:100FE0002146FFF7C9FF20462565666504B070BD40
:100FF000A44800005F10000070B5044686B00430BD
:1010000001F048FFC0B1002602AD0122294620466A
:10101000059602F0FBF92846FFF729FF2046FFF767
:1010200082FF064B039602930123009395E80C0080
:1010300021462046FFF7A0FF06B070BD270F000035
:101040004368026810B55C1C4460D154C3684168B1
:10105000013BB1FBF3F203FB1213436010BD38B543
:10106000051D0446284601F00FFF38B1284601F05F
:10107000F1FEC1B204F13000FFF7E2FF38BD38B530
:1010800005460C464030C9B2FFF7DAFF2846FFF7A5
:10109000B3FF204638BD2DE9F04107460C46B1B1FB
:1010A0000D4600F140082E4616F8011B21B14046BE
:1010B000FFF7C6FF3546F6E70A214046FFF7C0FFB7
:1010C0002C1B3846FFF798FF601CBDE8F0810846EE
:1010D000BDE8F0812DE9F04107460D4691B1A2B17E
:1010E0000E468C1800F14008B44205D016F8011BDA
:1010F0004046FFF7A5FFF7E73846FFF77DFF601B87
:10110000BDE8F0810846BDE8F0811046BDE8F081F9
:101110000EB42DE9F04185B0026D02AFD31D23F06E
:101120000703ADEB030D07F1240454F8048B02AE62
:1011300005460021304602F0A4FD224641463046D5
:101140007C6003F08BF82B6D024683420CD200903A
:101150005D220848084900F044F900200C37BD46DC
:10116000BDE8F04103B0704731462846FFF7B2FFB3
:10117000F4E700BF604800002048000010B50446B6
:10118000006808B102F0BCFA204610BD0021C26818
:1011900041608160006802F074BD38B504460846BD
:1011A0000D4602F0A1FAE56020602046FFF7EEFF51
:1011B000204638BD70B50E460446154601F0C6FB04
:1011C000013609D02046002101F0DAFB29462046ED
:1011D000BDE8704001F0D1BB70BD38B504460D4686
:1011E00043685AB1C26820461360012101F0C8FB70
:1011F00029462046BDE8384001F0BFBB0269F2E74E
:101200000322FFF7D7BF70B50E460446154601F01E
:101210009DFB013606D02A462046BDE870400221DB
:10122000FFF7DBBF70BD0022FFF7EDBF004870473E
:10123000D0480000014800F003B800BFD0480000CB
:10124000036870B5DB680446984763685A6823688A
:101250001AB99B68BDE8704018475B6815689847E5
:101260006368281A00285A6807DC916859601B686F
:10127000002BEAD050689847E7E7236810681B699D
:10128000BDE87040184703685B68184710B504460E
:1012900001300DD110BD9C4209D12046896801F072
:1012A000E5FB2046BDE81040022101F0F8BB0C31FF
:1012B0000B685A1CEFD10248BDE8104000F091B80D
:1012C0001D490000884208B508D0431C06D00131F2
:1012D00006D0044800F085F84FF0FF31084608BDFD
:1012E0000146FBE7EC4800000B685A1C01D1184688
:1012F0007047834201D1486870470C31F4E7000021
:10130000421C10B5044607D0FFF7EEFF431C04460D
:1013100002D1024800F065F8204610BDFD480000EB
:1013200000F04CB808B500F049F838B100F04EF8BC
:1013300030B900F043F80028FBD108BD4FF0FF3072
:1013400008BDEFF31080C04300F0010070470000BB
:1013500008B5FFF7F6FF72B6064B1A6822B980F09F
:101360000100054AC0B210701A681A6801321A608A
:1013700008BD00BFEC120010E812001008B5074BC2
:101380001A6852B1FFF7DDFF1A68013A1A601B684C
:101390001BB9034B1B7803B962B608BDEC120010F1
:1013A000E812001030B585B06D4618242046294655
:1013B000ABBE0446204605B030BD0000024B1868A5
:1013C00000F00100704700BFF0ED00E037B540F2DB
:1013D000051401AD20462946ABBE0446204603B0A5
:1013E00030BD0FB4012008B502F072F900B599B014
:1013F000FFF7AEFF17496846FFF715FF164906A825
:10140000FFF711FF15490CA8FFF70DFF144912A8AB
:10141000FFF709FF019A039B96201A60079A0A9B1F
:101420001A600D9A109B1A60139A159B1A6002F0AD
:1014300041F8019A049B96201A60079A099B1A604A
:101440000D9A0F9B1A60139A169B1A6002F032F8DD
:10145000E0E700BF32C0092034C0092035C00920B0
:1014600037C0092001F09CBA08B5024C23689847A0
:10147000FCE700BFCC00001008B50B4800F034FEBC
:101480000A4B18600A4800F02FFE0A4B18600A4801
:1014900000F02AFE094B186002F08CFBBDE8084002
:1014A0000021084602F0D3B87C4900003C28001017
:1014B00078490000F812001074490000F012001082
:1014C000FFF7D2BF10B5044600F07CFD2146BDE811
:1014D000104002460148FFF784BF00BF3C490000AE
:1014E00002F014B90B4AF0B4C2F1805303F5004383
:1014F000B3F5806F194628BF4FF48061064F074D42
:101500005B1A074C07489E183A602E602360016002
:10151000F0BC7047D82F00105825001000130010A1
:1015200054250010FC12001000F0B2FEFFF7DAFFA5
:101530000348002100F060FE00F0C6FCFEE700005A
:10154000D0000010024B4FF0FF31186800F0EABDE8
:10155000F8120010014B186800F00CBEF8120010D1
:1015600030B502788C78013A4368D2B213B19D78D5
:10157000A54207D2022A4B60416006D803B19960A8
:10158000886030BD18465B68F0E700238B6030BD93
:10159000436802785968013A022A41604FF000021C
:1015A00005D809B188605A609A60184670475A6039
:1015B000FBE70000034B5A684260002258608260DB
:1015C000704700BF302F0010104B10B5DA688AB199
:1015D0009A8A8A42DC680CD3C460D860C46803610C
:1015E00004B12061521A92B28282998A8A1A9A822E
:1015F00010BD3CB900248A1AC460D86003619A8285
:10160000848210BDA38A1A442346E2E7482F0010C3
:101610002DE9F041174DEB6853B10026AB8A164F08
:10162000013BDFF85880AB82AA8A0AB9EC680CB992
:10163000BDE8F081A36833B161685960616809B1A0
:101640008B606260A66021463846FFF789FFA38A57
:10165000AB826378042B01BFD8F80030E28A9B1874
:10166000A38201236370E368EB600BB11D61E66048
:101670002661D9E7482F0010302F0010C42F00102A
:1016800083682BB142685A6042685AB193607047D0
:10169000054B5A68904202D142685A60704713461F
:1016A000002AF6D1704700BF302F001010B58468B3
:1016B00001462CB94378012B0DD1074C03E0A468F7
:1016C0002378002BFBD00846FFF7DAFF2046BDE861
:1016D0001040FFF745BF10BD302F0010036910B553
:1016E00063B1C268DA60C2684AB1998A848A2144C7
:1016F000998213610023C3600023036110BD9A82A5
:10170000FAE7000070B4114BDD78EFF31086EFF3C9
:10171000108272B69A78954211D901329A701A786D
:10172000541CA54208BF00241C7006B962B695423D
:1017300007D970BC03EBC203586099607047002E54
:10174000F4D070BC0220FFF7BDBE00BFB42700106C
:10175000032303700023438043608360C3607047AA
:101760002DE9F84343880546002B63D0324F81684A
:101770003A6891425ED1013B9BB243801BB1002489
:101780002046BDE8F8830B6A984229D1C3680B62F2
:1017900091F824300C6A5CBB8B706A68DFF89C801F
:1017A000002A3BD02846FFF7F3FE06464FF001091A
:1017B000214600F0BDF83046FFF790FF336A3968E4
:1017C000EB60D8F80430A5F80290AE6035628A78F4
:1017D0009B789A4214D3304600F04EFED0E7134671
:1017E000002BD5D0DA689542F9D1EA68DA60CFE704
:1017F00062681AB19278934238BF1346E468CAE728
:101800004046FFF7ADFE31464046FFF7A9FE3B6874
:1018100083F8019086F801902046DDE7D8F804208F
:1018200092789A42ABD94046FFF79AFE01223B6874
:101830005A70F1E7FF24A3E77C2F0010302F00102F
:10184000438870B504460E46134D43B92A68116AA1
:101850008260C160106201336380002070BD8068C7
:101860002A689042F7D081B1937882789A4202D266
:101870008370FFF71BFF62684AB129682046FFF7B3
:101880006FFE0921304600F019FE012070BD2B6863
:1018900063605A609C60F4E77C2F0010F0B54FF055
:1018A00080764FF0000E836A056B9B0802BF1E4BCB
:1018B0001B889B0805EB8302540748BF043A02E9E2
:1018C0004200A2F14004A2F14406A2F10C0746F83E
:1018D00004EFBE42FBD1C66942F8206C4163124955
:1018E000C4620968C90017D5112B15D96FF007011B
:1018F000103B5B084B43A3F138010A444FF0CC3056
:10190000214691420BD108331C44231F9D423CBF0A
:101910004FF0CC3344F8043C044B2B60F0BD41F84D
:10192000040C41F8080DECE784490000A52E5AE2AA
:10193000C36A19627047C36A19625A62704700002D
:10194000054B1B7823B94FF08052044B1A60704747
:101950000122034B1A7070475423001004ED00E07D
:101960005523001038B51A4B1A4C186801234370E0
:10197000FFF720FE6578A3783BB917486570FFF73D
:1019800007FEBDE8384000F05DBD04EBC5035868B4
:1019900002789AB9198900F0BBF9E37801359D42C4
:1019A00008BF0025EFF31083EFF3108272B6A27820
:1019B000013AA270002BDED162B6DCE7012A03D126
:1019C000996800F033F9E8E700F09CFFE5E700BF15
:1019D0007C2F0010B4270010302F0010084B4FF060
:1019E000FF301A68074B1A6000225A60072243F83A
:1019F000042C054A136843F07F431360704700BF0F
:101A00009C49000014E000E020ED00E07047000079
:101A100008B50B4B186801234370FFF7CBFD00F0AE
:101A2000ADF9084A136801331360FFF7F1FD00F0C8
:101A300091FC0548FFF7ACFDBDE8084000F002BD91
:101A40007C2F0010C42F0010302F0010064B1A6896
:101A5000136BD26A934203D81A68044B9A4202D09D
:101A60000120FFF72FBD70477C2F0010A52E5AE2F2
:101A7000002ABBBF22F000420732033222F00702E5
:101A8000A8BF22F0030210B5B4BF10230C2392B1FB
:101A9000D4188C420FD8014403445442416003607F
:101AA000826021449818814202D300510346F9E72D
:101AB0000020186010BD012010BDEFF3108372B636
:101AC000026803F001030AB11168016003B962B64C
:101AD0001046704781420DD3436899420AD2EFF312
:101AE000108372B602680A60016013F0010003D12E
:101AF00062B67047012070470020704701230370D1
:101B00000023103989084370837043600381438147
:101B10008381C1817047000070B5858904461646EF
:101B2000002D38D043891A1D50F8222001330A6055
:101B3000C2899BB29A42438104BF00234381436818
:101B4000F3B14378022B1BD1FFF722FD054600219C
:101B5000FFF7EEFE2389E9691A1D44F822100133CC
:101B6000E2899BB29A42238108BF0023284608BF1E
:101B70002381FFF7B3FD284600F07EFC002070BDF6
:101B8000EFF31080EFF3108372B6013DA5810028BA
:101B9000F4D162B670BD4AB14268094B42B11968CE
:101BA000FFF7DEFC0821304600F088FC012070BD04
:101BB0001B6843605A60986001234370F2E700BFDE
:101BC0007C2F0010C2898089101A704708B5FFF772
:101BD00099FDBDE80840FFF7B3BE838910B5044600
:101BE0000BB34389043350F823300B604378022B46
:101BF00004D10021FFF786FDFFF7A2FEEFF310836B
:101C0000EFF3108272B6A289013AA28103B962B6DB
:101C10006389E28901339BB29A42638101D1002337
:101C20006381042010BD184610BD0000436870B5E4
:101C300004460E46002B4BD04578022D20D0032DB4
:101C40000AD0012D61D1FFF7A3FC044632461021D2
:101C5000FFF771FE65700EE00846FFF72EFF0546A0
:101C6000002852D02046FFF793FC29460446FFF790
:101C70005FFE012363702046FFF730FD214622E01E
:101C8000FFF786FC05460021FFF752FE2389E9692C
:101C90001A1D44F82210EFF31082EFF3108172B690
:101CA000A1890131A18102B962B6E28901339BB2F7
:101CB0009A42238104BF00232381012328466B70AD
:101CC000FFF70CFD2946BDE870401048FFF748BCFF
:101CD0008089E189884213D223891A1D44F8226041
:101CE000EFF31082EFF3108572B60130A08102B9D4
:101CF00062B601339BB2994208BF0023238170BDB5
:101D00000320BDE87040FFF7DDBB70BD302F001031
:101D100010B5038B42781943062A04460183438B8E
:101D200015D133EA010219D121EA030121832046AA
:101D3000FFF7D4FC012320466370628B0821FFF774
:101D4000FAFD2146BDE810400548FFF709BC052A09
:101D500004D111EA030201D04283E5E710BD00BFC0
:101D6000302F00100022034B1A60034A1268DA80F9
:101D7000704700BF682F00108049000008B50E4B67
:101D80005A680E4B196891420D4905D01A60DA88DD
:101D90000868013A02449A8098880A8890420AD1D9
:101DA000002205481A60FFF7F3FBBDE80840014632
:101DB0000148FFF7D5BB08BD302F0010682F001079
:101DC000C42F001030B500240A4A136843B90360D9
:101DD000816013B19D68691A996044B1206030BD7B
:101DE0009D68A942F3D31C46491B1B68EEE71060AF
:101DF00030BD00BF782F0010C0B1431C11D00C4B78
:101E0000984211D84FF47A710A4B1B685A1E01FB95
:101E10000020B0FBF3F34FF6FE70834206D898B271
:101E200070474FF6FF7070474FF6FE70704700BF67
:101E300000093D003849000038B1830704D1037818
:101E4000002B18BF0020704700207047B0B50E4D22
:101E500000AF2878A8B90D4C236893F8241000F03F
:101E60004FFB2368DA78FF2A03D1DA6A203282F343
:101E7000098862680AB984E80C0000F0F9FC0123C3
:101E80002B700020B0BD00BF752F00107C2F0010FC
:101E9000014B1878704700BF752F001010B5EFF395
:101EA000108434B9EFF305841CB9EFF31484E4070C
:101EB00002D4034B187810BDDFF808C000DF10BD56
:101EC000752F0010911E000090B589B000AFEFF3A0
:101ED0001083002B37D1EFF30583002B33D1FFF7AD
:101EE000DDFF28B9194C246814B1646804B1A04717
:101EF000EFF3148404F00304022C18D0032C1CD03C
:101F0000012C1ED007F1200484F30988104C24789A
:101F1000E40710D5022484F31488BFF34F8FBFF376
:101F20006F8FDFF830C000DF2437BD4690BD084C0E
:101F30002478E407F5D40324EDE7054C2478E4077E
:101F4000EFD5FF20F0E78220EEE700BF642F0010FE
:101F5000664900004D1E000070B50B46164602464D
:101F600010B90024204670BD00680028F9D0B2F9ED
:101F70000440E51CADB2062DF3D8D168C1B1126999
:101F8000043444EA012100F0F9FA0028E9D00A4BB0
:101F9000013853F82040094AE36A5A63084B1B682A
:101FA00043B19B6833B13146E0789847E063D9E7A5
:101FB0000A46E5E7E663D5E77827001045210000EB
:101FC000642F001008B500F093FA18B1024B0138E5
:101FD00053F8200008BD00BF7827001010B5FFF7A8
:101FE0002BFF044670B1084B1B681BB1DB680BB1BB
:101FF000C06B9847E07800F017FBFF280CBF8120EA
:10200000002010BD802010BD642F001008B528B13D
:10201000FFF7F2FE00F072FC402008BD08BD000092
:1020200010B5EFF3108434B9EFF305841CB9DFF871
:102030000CC000DF10BD822010BD00000D2000008C
:10204000830705D138B1436901691B681846704799
:1020500000231946FAE70346FBE7000010B50446E3
:102060000846DFF80CC000DF84E80300204610BDFE
:102070004120000010B548B1046824B1237823B989
:102080002046FFF765FB204610BD002010BD70B54F
:1020900010F0030405460E4611D180B10378032BDE
:1020A0000DD10846FFF7A8FE01462846FFF7C8FBFA
:1020B000012806D1002E14BFC120812070BD8020D0
:1020C00070BD204670BD820708B50AD148B10378BB
:1020D000032B06D1FFF744FBFF280CBF8120002013
:1020E00008BD802008BD000070B50546EFF31084E0
:1020F00094B9EFF305867EB9EFF31484E40706D4B0
:10210000064C24781CB9BDE87040FFF7B3BF2846E1
:10211000DFF80CC000DF70BD002070BD752F00100F
:102120007520000010B5EFF3108434B9EFF3058487
:102130001CB9DFF80CC000DF10BD822010BD00000C
:102140008F200000084808B54FF0FF310068FFF706
:10215000E9FFDFF818C000DF0446FFF7C1F92046A9
:10216000DFF80CC000DFFEE7702F0010C51F000075
:10217000DD1F000010B5EFF3108434B9EFF30584D0
:102180001CB9DFF80CC000DF10BD822010BD0000BC
:10219000C72000002DE9F04180460F461646EFF3B8
:1021A000108404BBEFF30583D3B9EFF31483DB078B
:1021B00006D40E4B1B781BB9BDE8F041FFF7CCBE2F
:1021C0000B4D4FF0FF312868FFF7ACFF4046394612
:1021D0003246DFF820C000DF04462868FFF7CAFF58
:1021E0002046BDE8F0810024FAE700BF752F0010FB
:1021F000702F0010591F00000022FFF7CBBF10B551
:10220000044660B1016851B1406848B1037833B900
:102210000431890089B2FFF771FC606810BD0020AD
:1022200010BD000038B5114C23780BB900F0A6FAA8
:10223000FF220F4B25781B689A708DB929460D48EF
:10224000FFF7DDFF0C4B2A46186029460B48FFF7C5
:1022500083FE0B4B18600B48FFF746FF0A4B1860D4
:10226000012300202370094B187038BD742F001013
:102270007C2F00106C4900003828001088490000AD
:102280002C2F0010A0490000702F0010752F001097
:1022900010B5EFF3108474B9EFF305845CB9EFF374
:1022A0001484E40703D4BDE81040FFF7BBBFDFF898
:1022B0000CC000DF10BD822010BD000025220000F0
:1022C0002DE9FF410C46804618B30378012B25D138
:1022D0000846FFF791FD02A902464046FFF71CFCA5
:1022E000012811D10020002C0246034618BF4020CF
:1022F000029904460D4616461F4620462946324698
:102300003B4604B0BDE8F0810020024603461020A1
:10231000EEE78024054606460746EEE700258024C2
:102320002E462F46E9E770B50E461446054660B1C5
:102330005AB90378012B08D1FFF744FC38B128467D
:102340003146FFF743FC204670BD802070BD8120E0
:1023500070BD0000F8B5114E34682CB1A368104F61
:10236000013BA360A26802B1F8BD25682146386828
:102370003560FFF7D8FF10B10420FFF7A3F86379A9
:10238000012B07D1E1682046FFF71CFD002DEBD0A3
:102390002C46E7E701232371F8E700BF782F0010F0
:1023A000382800107FB504461646084601B122B110
:1023B00080232360204604B070BD0B78012BF7D139
:1023C00002A9FFF70AFC042808BF102301AD14BFBF
:1023D0000196019395E8070084E80700EAE700000A
:1023E00038B504461546EFF3108010B9EFF30580B9
:1023F00028B12A462046FFF7D5FF204638BD0846BB
:102400001146DFF80CC000DF84E80700F5E70000A4
:10241000C12200007FB50A4C4FF0FF32216803A8AB
:10242000FFF7DEFF039B102BF6D1049901A8FFF7FD
:1024300015FE019B002BEFD002989847ECE700BFF8
:1024400038280010054B586002234370044B1B686A
:102450001BB11B690BB1C06B184770477C2F001074
:10246000642F001008B50348FFF792F8BDE8084054
:10247000FFF7E8BF302F001070B5044618B9BDE86B
:102480007040FFF7EFBF0B4EA278306801258378CC
:102490009A4208D9FFF78EF8336820465D70BDE890
:1024A0007040FFF7CFBF65702146BDE8704002481D
:1024B000FFF756B87C2F0010302F001038B50D46AE
:1024C000014680B14FF6FF739842074C02D0206856
:1024D000FFF77AF8236805485D70FFF759F8BDE803
:1024E0003840FFF7AFBF38BD7C2F0010302F0010F1
:1024F000024B186800B1C078704700BF7C2F0010F5
:1025000010B5A8B9194B1B68997083F824101848A6
:1025100043689B788B4201D8002010BD134C216882
:10252000FFF71EF8012223685A70FFF79BFFF3E7BD
:10253000104B1B88984217D80F4B013853F8204096
:1025400094B10A4BA1701B6884F824109C42DED021
:102550002046FFF7ABF86378012BDDD10448FFF785
:1025600017F8FFF789FFD7E7FF2010BD7C2F001079
:10257000302F001068490000782700102DE9F0473F
:102580000D4611F0FF0F8046234816469A4608BFB5
:102590000135FFF792FA044620B94FF0000948468A
:1025A000BDE8F08700211D4B06631B88280A1C4EDE
:1025B000A0628B4201F10109EFD006EB890252F8CB
:1025C000042C0F464946002AF3D10123EDB284F8CA
:1025D0000390C4F81CA0C4F838A022706370A570E2
:1025E00084F824506260A260E26022612262A282CA
:1025F000E2822283628384F8252018B90948FFF714
:102600005CFA206320464146FFF748F9204646F829
:102610002740FFF731FFC2E7602B00106849000038
:1026200078270010682500102DE9F84F4D4D18B19E
:102630002B68DB78984241D100232C680127637016
:1026400001F071F8E062FFF701FA2B68DFF82881EA
:102650001C6AA4B92A684449D3784448013B41F82C
:102660002340116BFFF736FA296841480C63FFF7E6
:1026700031FA2C60FFF7F6FE2046BDE8F88F63685C
:10268000B3B12046FEF784FF06460021FFF750F95C
:102690003046FFF723F8777031464046FEF760FF7B
:1026A000E368326A6780A660E26034621C46D0E765
:1026B000E2686380A360E3601446CAE72D4B1B8881
:1026C00098424DD8284B471E53F827609946002E54
:1026D00046D04FF0010A3046FEF7D2FF3046FEF7F3
:1026E000FDFFDFF894B0346AB4B9316B1F4849F884
:1026F0002740FFF7EFF9314634631D48FFF7EAF949
:102700001D48296843689A788B789A42B4D9012386
:102710004B70FEF725FFADE76368DBB12046FEF79F
:1027200037FF80460021FFF703F94046FEF7D6FF4A
:1027300088F801A041465846FEF712FFE368D8F832
:102740002020A4F802A0C4F80880E260C8F8204065
:102750001C46C9E7E2686380A360E3601446C3E7F0
:10276000FF2489E77C2F00107827001068250010CF
:10277000602B001068490000302F001038B52C4B3A
:102780002C491A880023184693424DD32A4B4022E5
:1027900019882A48FFF76CF9294B2A481A882A4BCE
:1027A00042F000421968FFF763F9284B08221988A4
:1027B000274B284C1868FFF75BF9FF230025E370CF
:1027C000012320486370A5622570A57084F8245009
:1027D0006560A560E56025612562A582E5822583A7
:1027E000658384F82550FFF768F91B49206320466C
:1027F000FFF754F80422194B20461A705D60184BFD
:102800001A70DD601D619D82164B1C60022363708F
:10281000FFF718FE144A154B12781D705D70DA70C0
:10282000BDE83840FFF79EBA41F823000133ABE71B
:10283000684900007827001034490000602B001020
:102840008449000068250010304900003649000026
:10285000F4120010842F0010C1140000302F00105B
:10286000482F00107C2F001065490000B42700108D
:1028700008B51E4B1A6842F47F021A601B681B02DF
:1028800003F07F43DB43B3FA83F3194ADBB21268E8
:10289000C3F10803C2F30222934298BF531C6FF0A6
:1028A0008072144802FA03F3016803F07F4321F0B9
:1028B0007F4213430360FFF791F80F4B0028186025
:1028C00012DBFF22012100F1604000F5644002703C
:1028D0001A6853099B0003F1604302F01F0203F5DD
:1028E000614301FA02F21A6008BD00BF20ED00E06A
:1028F0000CED00E01CED00E0602F00100321FFF75D
:10290000DDBD0000426810B57AB1FEF741FE044615
:10291000FEF7E4FE012120466170FFF709F8214629
:10292000BDE810400348FEF71BBE428801324280DA
:1029300010BD00BF302F001010B50021044600F07C
:1029400095F8012004F01F04A04010BD38B50546DD
:102950004B1C0C4629600FD00846FFF7EDFF24F012
:102960001F0404F11803EB6004F11C032B6104F154
:10297000140368606B61AC6038BD006800F08FB80C
:1029800011B1012907D0704782684168136823EAB2
:102990000103136070478268416813680B43F8E7CE
:1029A00008B5FEF7BFFC0022044BC3F8C020044A60
:1029B000136923F00403136130BF08BD00C00F404A
:1029C00000ED00E008B5104B1868E0B901210F4A8E
:1029D0001960D2F8C43043F40003C2F8C430A2F541
:1029E000D022106702200A4B1B6850600948B3FBD5
:1029F000F0F3013BD36004205160074900F0B0FBC5
:102A00001022064B1A6008BD6823001000C00F405A
:102A1000E400001000093D003512000000E100E074
:102A200008B5044B1B680BB9FFF7CCFF024B986845
:102A300008BD00BF6823001000400940034B9861A7
:102A40005A6942F001025A61704700BF00400940D4
:102A5000024A536923F00103536170470040094063
:102A60000122014B1A6070470040094010B5032451
:102A700000F16040A0F51C2043000009800000F137
:102A8000804000F53030026803F01E039C4022EACB
:102A900004020260026899401143016010BD00F118
:102AA0006040A0F51C2043099B0003F1804303F51F
:102AB000303330B500F01F029C6EC1F3800505FA7B
:102AC00002F224EA02049C669C6E22439A6695B93F
:102AD000032443000009800000F1804000F53030FD
:102AE000026C03F01E039C4022EA04020264026CA2
:102AF00099401143016430BD012810B408D0022868
:102B000008D010BC7047506820F00100506010E001
:102B100003460EE038230F4803FB010358680130D9
:102B200006D018699C68046093F83630002BEAD010
:102B30000023382251430748421840580028E0D06B
:102B40001BB992F83620002ADBD0034A19461268D6
:102B500010BC1047742300106C230010034A00219E
:102B60009068C0F34200FFF7C7BF00BF00C000403D
:102B7000034A01219068C0F34200FFF7BDBF00BFC8
:102B800000000140034A02219068C0F34200FFF7B1
:102B9000B3BF00BF00800940034A03219068C0F31F
:102BA0004200FFF7A9BF00BF00C0094070B50B4647
:102BB000066829498E4222D006DCA1F580418E426A
:102BC0000CD000210C460BE024498E421AD001F5AE
:102BD00080418E42F5D12249082401E00524214993
:102BE0009AB10125726805FA03F313437360204616
:102BF00000F0B6FA1C4B05FA04F41C6070BD1B49CA
:102C00000624EDE71A490724EAE7012B0AD04268B7
:102C10003820184900FB021292F8361092F835203D
:102C2000D14217D1012202FA03F0B3FA83F371689B
:102C30005B0921EA00017160716802FA03F30B423B
:102C400008D1094B02FA04F4C3F88040BFF34F8F58
:102C5000BFF36F8F70BD00BF0000014000800940CE
:102C6000992B00005D2B000000E100E0712B0000BB
:102C7000852B0000742300102DE9F04F644B04688D
:102C800087B09C4200F08D806ADCA3F580439C42B3
:102C900079D0604B0801D3F800C0BCFBF0F293B2CE
:102CA00000FB12C2002A00F0AA800125E6469946E0
:102CB000AB464FF0000A0191039100264FEA4E0304
:102CC0000493DDF804804FEA8E03EFB20593F3B26C
:102CD0000093049B002BABBF059BB3FBF8F3B3FB46
:102CE000F8F31B09A8BF5B090133C3F34F03002BA3
:102CF00000F0888016B1012B08BF0223A8195843A1
:102D0000C000BEFBF0F00130C1EB50000028B8BF9E
:102D100040420290029A0398824262DA91425AD16A
:102D20000F2D07D1BB469946DDF800A05F464B4604
:102D3000CDF800A0217B41F080012173C3F307216E
:102D4000DBB221712370009B43EA0712D2B284F8F0
:102D50002820237B03F07F03237307B0BDE8F08FA7
:102D60002D4B9C4229D003F580439C4291D12B4BA3
:102D7000D3F8AC2122F44022C3F8AC21D3F8AC2123
:102D800042F4802224E0254BD3F8A82122F0C0028F
:102D9000C3F8A821D3F8A82142F04002C3F8A82123
:102DA00077E71E4BD3F8A82122F44072C3F8A8217C
:102DB000D3F8A82142F48072F0E7184BD3F8AC2185
:102DC00022F44032C3F8AC21D3F8AC2142F4803273
:102DD000C3F8AC215DE7BB469946029ADDF800A036
:102DE00003920136F3B2BB428844FFF470AF0F2D5B
:102DF0009CD0019B01350B44E64401935DE701271C
:102E0000009297E7002E0CBF0123022376E700BF54
:102E100000000140E40000100080094000C00F40A5
:102E2000034B1960382341684B430249CA5070472D
:102E30006C2300107423001030B431B93825436876
:102E4000034C05FB034383F8362030BCFFF7AEBECE
:102E50007423001010B50268137DDB07FCD53824FD
:102E600043680848117804FB03035868C9B201306D
:102E700006D058699B680360536843F001035360B0
:102E8000084610BD742300100368187D00F001008F
:102E9000704700003821114A436801FB0323DA69B7
:102EA000013209D01A6B1B6A12681A4214D10368E6
:102EB000187DC0F3801070470268127D920604D519
:102EC0000022012083F83420704793F834000F2843
:102ED0008CBF002001207047002070477423001031
:102EE00038B504460D462046FFF7D4FF0028FAD037
:102EF00038212368EDB21D706368044A01FB032387
:102F000093F83420013283F8342038BD7423001044
:102F10002DE9F84F9A463C4C03680546A34218BF7A
:102F200000248946904647681CB1237C03F03F0388
:102F3000237438234FF0FF32344E284603FB0763D7
:102F4000DA615A60002283F835201146FFF72EFE21
:102F5000B9F1000F55D02E494046FEF7C5F92D496D
:102F600083465046FEF7C0F9A9F10203012B1BD896
:102F7000BAF1FF3F0BD0244B98420DD164B1237CB2
:102F8000244943F0800323745046FEF77FF9B9F1DA
:102F9000030F0CD0BDE8F88F382000FB07605146C6
:102FA0001C30FEF72DF9F2E7B9F1010F29D1B8F184
:102FB000FF3F01D1BDE8F88F07222B681A72124B30
:102FC0009B450AD14CB1237C404643F04003237417
:102FD0000F49BDE8F84FFEF759B9382404FB0760E4
:102FE000414600220430FEF70EF901226B682846A4
:102FF00004FB036686F835200021BDE8F84FFFF793
:10300000D5BDBDE8F88F00BF00000140742300105B
:10301000C8490000A44900002DE9F0410F460546CB
:10302000464938461646FEF76BF945490446304690
:10303000FEF766F901462046FEF744F9414B044687
:10304000984228605DD047D8A3F58043984250D07D
:1030500001234FF0000823724FF416512846C4F89C
:103060000480FFF709FE03222B6834491A7338469F
:10307000FEF70CF932493046FEF708F97A1C03D006
:1030800041463846FFF70BFD731C03D00021304644
:10309000FFF705FD2B4B9C424BD03ED8A3F5804358
:1030A0009C4243D038216A68274B284601FB0232F4
:1030B0004FF0FF3300215360D3611A46FFF728FF1A
:1030C000224B9C4206D10122214B69681A60286874
:1030D000204B03C3BDE8F0811F4B984217D003F586
:1030E00080439842B4D11D4AD2F8C43043F00073F3
:1030F00004E01A4AD2F8C43043F00803C2F8C430DE
:10310000A6E7164AD2F8C43043F01003F6E7134A94
:10311000D2F8C43043F08073F0E70F4B9C420AD0E2
:1031200003F580439C42BDD1032300E000236B6084
:10313000B8E70123FBE70223F9E700BF584A000084
:10314000EC490000000001407423001000C0004062
:1031500070230010C82F00100080094000C00F40ED
:1031600030B50C4CA268A4681346B4F1805F0CD251
:10317000131F094C094A53F8045F42F8045FA24246
:10318000F9D14FF08053034A9360103043F8201078
:1031900030BD00BF00ED00E0C0000010FCFFFF0FDD
:1031A0002022264BC3F8A021D3F8A021920603D5F4
:1031B000D3F8A0215006FBD50222C3F80421002237
:1031C0000120C3F8A821C3F8AC210B22C3F80C01DD
:1031D000AA21C3F884205522C3F88C10C3F88C2090
:1031E000C3F88000C3F88C10C3F88C20134B1A4628
:1031F000D3F888104901FBD50321C3F88010AA2118
:10320000C3F88C105521C3F88C10D2F8883013F015
:10321000407FFAD00523C2F80831094BC2F8C43008
:103220000023C2F8C831136823F4704323F03A0333
:1032300043F4405343F03A031360704700C00F401B
:10324000DE87280410B50446FEF782F823682BB900
:10325000E068FEF718F8012360602360BDE81040C5
:10326000FEF78CB838B50546FEF772F82C6824B125
:10327000E868FEF708F86C68041BFEF77FF8204644
:1032800038BD38B50546FEF763F82846AC68FFF749
:10329000E9FF0444FEF772F8204638BD08B5FFF791
:1032A000F0FF4FF47A7390FBF3F008BD10B50446BD
:1032B000FEF74EF8E068FDF7E6FF00236060A360CC
:1032C000BDE81040FEF75AB8002310B50360436014
:1032D00083600446FDF7AAFFE0602046FFF7E6FFA3
:1032E000204610BD7047000010B50446024B036035
:1032F000FDF7C6FD204610BDCC4A000010B50446BF
:10330000FFF7F2FF204600F0FFF9204610BD000055
:1033100010B5044600F03CF8014B2046236010BD78
:10332000CC4A00000368184708B10B680360704777
:103330007047884238B504460D460AD0FDF797FD20
:103340003CB1EB681BB15B68294620469847EB68A7
:10335000E360204638BD70477047704700EB0112AC
:10336000936902F10C001B68184770B505460E46BC
:10337000044655F8043B1B68984728463146FFF73A
:103380007BFC2368E6622046BDE870405B68184716
:103390002DE9FF410F46002104469046174A184E7A
:1033A000184DC3620260416081608161816269463B
:1033B0000C3003950096FFF7BCFF6846FDF757FDFC
:1033C000694604F11C0003950096251DFFF7B1FF27
:1033D0006846FDF74CFD424639462846FFF71CFE7D
:1033E000E16A2846FFF748FC284622460649FFF7CF
:1033F00017FD204604B0BDE8F08100BFF04A000090
:1034000057330000DC4A00005D3300002DE9FF4126
:1034100005468846164655F8043B04461B689847FF
:10342000FDF796FFD8F80C70300197B10C3041468B
:103430002044FFF77EFF012231462846FFF7FCFCBF
:10344000FDF79CFF236820465B68984704B0BDE801
:10345000F081074B0C300093064B694620440393E0
:10346000FFF767FF6846FDF702FD3A46E4E700BF55
:1034700057330000DC4A000000F058BC00F0B4BC38
:1034800000F008BC70B505464FF47A74FFF7C8FA2F
:1034900095FBF4F4002C064602DDFDF752FF28B937
:1034A000FFF7BEFA801BA842FAD370BD204600F099
:1034B00035F9F5E74FF47A735843FFF7E3BF00009F
:1034C00008B5084B1B685BB907490848084AFFF76D
:1034D000A3FD4FF41651BDE808400448FFF7CCBBEC
:1034E00008BD00BF7023001002C00920C82F0010C3
:1034F00003C0092070470000022810B5044601DC13
:10350000002010BD00F0C2F9092300220360094B1E
:10351000033C53F8240043F8242040B103681B699E
:103520009847041EECDA00F0B1F9644204604FF0F1
:10353000FF3010BD54240010F8B505460E46144661
:1035400000F0A4F90923022D03600FDC124B1B6865
:103550000BB9FFF7B5FF35463719104EBD4215D0F0
:1035600015F8011B3046FFF7BBFCF7E70C4B033D9A
:1035700053F8250060B103682246DB68314698475E
:10358000041E03DA00F082F9634203602046F8BDAE
:103590004FF0FF34FAE700BF70230010C82F00106F
:1035A0005424001070B504460D46164600F06EF91E
:1035B0000923022C03600BDC0F4B1B680BB9FFF7D0
:1035C0007FFF0E48FFF746FC01242870204670BD9F
:1035D0000B4B033C53F8240058B1036832469B68F8
:1035E00029469847041EF1DA00F050F9634203605F
:1035F000ECE74FF0FF34E9E770230010C82F00100C
:103600005424001070B504460D46164600F03EF9ED
:103610000923022C03600BDD084B033C53F8240004
:1036200040B1036832462946BDE87040DB6918475F
:10363000002070BD4FF0FF3070BD00BF542400105B
:1036400008B5FFF757FFFDF76FFF08BD704708B5D6
:10365000FFF7FCFFBDE80840FDF74ABB0C4A10B578
:1036600013681844EFF30881884205D30C22094BF4
:103670004FF0FF301A6010BD07490C6824B10749AC
:10368000096821448842F1D21060184610BD00BF7D
:10369000E8000010D02F001054250010582500100D
:1036A000094C08B523680546986800F0A7F9236817
:1036B000D86800F0A3F9FDF733FE08B1FDF772FEFC
:1036C0000DB1FDF793FEFEE7EC00001001207047FE
:1036D00008B5FFF7E5FF08B5FDF734FF08BD08B5ED
:1036E000FDF738FF08BD000010B500F087FA04466A
:1036F00010B90248FDF775FE204610BD004B0000D2
:1037000008B100F083BA7047FFF7FABF024B1B689D
:1037100003B11847704700BF5C250010FEF780BC5E
:1037200080F309887047EFF309807047684680F39B
:1037300009883F480078C00714BF0220032080F3A7
:1037400014887047DFF8ECC0EFF305831B0618BF41
:103750006047EFF31483DB0708BF604700DF704763
:10376000DFF8D4C0EFF305831B0618BF6047EFF303
:103770001483DB0708BF604700DF7047EFF3098061
:10378000816911F8021CF1B990E80F10E047EFF3DE
:10379000098C8CE80700294B93E8060091420FD072
:1037A00039B12CE9F00FC1F82CC00CB4FEF74EF97A
:1037B0000CBC1A60D2F82CC0BCE8F00F8CF309885E
:1037C0006FF0020E704710B51D4A1268914209D879
:1037D0001C4C54F8214090E80F10A047EFF3098CDF
:1037E0008CE80F0010BDFEF7BDF8144B93E80600FF
:1037F000914210D0EFF3098C2CE9F00FC1F82CC0E6
:103800000CB4FEF723F90CBC1A60D2F82CC0BCE84B
:10381000F00F8CF309886FF0020E7047FEF7F8F88E
:10382000FFF7E3BFFEF7F2F8FEF7F2F8FFF7DDBFB0
:1038300066490000BB1A0000D51A00007C2F00105A
:1038400000000000FCFFFFFF0649074A074B9A42B1
:10385000BEBF51F8040B42F8040BF8E70448804758
:1038600004480047C44B0000C80000105C01001071
:10387000A1310000D50D0000FEE7FEE7FEE7FEE700
:10388000FEE7FEE7FEE7FEE7FEE7FEE7014B18680E
:10389000704700BFEC0000108A892DE9F041054611
:1038A00010070C465AD44B68002B05DC0B6C002B20
:1038B00002DC0020BDE8F081E66A002EF9D000238A
:1038C00012F480522F682B6033D0606DA3895A07A1
:1038D00005D56368C01A636B0BB1236CC01A002353
:1038E0000246E66A216A2846B047431CA38906D1EE
:1038F00029681D294BD82B4ACA40D60747D5002234
:1039000062602269D904226004D5421C01D12B686F
:1039100003B96065616B2F600029CAD004F14403CC
:10392000994202D02846FFF7ABFD00206063BDE856
:10393000F081216A01232846B047411CC6D12B687B
:10394000002BC3D01D2B01D0162B01D12F60B0E767
:10395000A38943F04003A381BDE8F0810F69002FE4
:10396000A7D0930718BF00230E6808BF4B69A6EBCA
:1039700007080F608B60B8F1000F9ADD43463A46A6
:10398000216A2846A66AB047002807DCA38943F0CD
:103990004003A3814FF0FF30BDE8F0810744A8EB5E
:1039A0000008E8E70100402038B50B6905460C46E1
:1039B000DBB118B183690BB900F072F80C4B9C4273
:1039C00009D16C68B4F90C307BB121462846BDE8BA
:1039D0003840FFF761BF074B9C4201D1AC68F1E76B
:1039E000054B9C4208BFEC68ECE7002038BD00BFE7
:1039F000404B0000604B0000204B0000014620B906
:103A0000044B0549186800F0B7B8044B1868FFF775
:103A1000CBBF00BF804B0000A9390000EC000010B4
:103A2000014900F0A9B800BFA9390000002310B572
:103A3000044603604360836081814366C281036101
:103A400043618361194608225C3000F01AF9054B86
:103A500024626362044BA362044BE362044B23635E
:103A600010BD00BF95410000B7410000EF410000CC
:103A70001342000070B568254A1E55430E4605F1F5
:103A80007401FFF7F9FC044640B1002180E84200D0
:103A90000C30A06005F1680200F0F3F8204670BD1C
:103AA000836910B5044633BB8364C3640365124B5A
:103AB000124A1B688262984204BF0123836100F0AE
:103AC0001FF86060204600F01BF8A060204600F060
:103AD00017F80022E06004216068FFF7A7FF0122C9
:103AE0000921A068FFF7A2FF02221221E068FFF778
:103AF0009DFF0123A36110BD804B0000213A00000F
:103B0000F8B51C4B07461E68B36913B93046FFF77A
:103B1000C7FF4836B4687368013B03D5336833B1D7
:103B20003668F7E7B4F90C506DB16834F4E7042156
:103B30003846FFF79FFF30600028F1D10C23044680
:103B40003B602046F8BD4FF6FF73E38101236566B5
:103B5000A3812560A560656025616561A561082276
:103B6000294604F15C0000F08CF86563A563A56448
:103B7000E564E6E7804B00002DE9F843804689467E
:103B8000002600F1480414B93046BDE8F883A56862
:103B90006768013F01D52468F5E7AB89012B07D998
:103BA000B5F90E30013303D029464046C8470643D5
:103BB0006835EEE770B500250C4E0D4CA41BA41023
:103BC000A54209D100F0F2FC00250A4E0A4CA41BC4
:103BD000A410A54205D170BD56F82530984701358F
:103BE000EEE756F8253098470135F2E7500100100E
:103BF000500100105001001058010010024B014606
:103C00001868FFF739BC00BFEC000010024B0146FA
:103C10001868FFF735BC00BFEC00001010B5C9B242
:103C200002449042034601D1002010BD1C780130AF
:103C30008C42F6D1184610BD10B5431E0A4491427D
:103C400000D110BD11F8014B03F8014FF7E788428E
:103C500010B501EB020303D8421E99420CD110BDEE
:103C60009842F9D28118D21AD34200D110BD13F86C
:103C7000014D01F8014DF7E711F8014B02F8014F32
:103C8000EBE703460244934200D1704703F8011B5F
:103C9000F9E7000038B50546002943D051F8043C47
:103CA0000C1F002BB8BFE418FFF715FD1E4A136860
:103CB000104633B9636014602846BDE83840FFF70A
:103CC0000EBDA3420BD921686218934201BF1A6846
:103CD0005B685218226063600460EDE713465A681F
:103CE0000AB1A242FAD919685818A0420BD120682B
:103CF0000144581882421960DED1106852680144AC
:103D000019605A60D8E702D90C232B60D4E72068E9
:103D100021188A4201BF1168526809182160626047
:103D20005C60C9E738BD00BF6025001070B5CD1CD0
:103D300025F0030508350C2D38BF0C25002D06464F
:103D400001DBA94203D90C233360002070BDFFF7CB
:103D5000C2FC234A1468214691B9224C23681BB93E
:103D6000304600F007FA20602946304600F002FA9B
:103D7000431C26D10C2330463360FFF7B0FCE4E748
:103D80000B685B1B1AD40B2B0FD90B60CC18CD50D2
:103D90003046FFF7A4FC04F10B00231D20F00700C0
:103DA000C31A1BD05A42E25070BD8C420BBF6368ED
:103DB0004B681360636018BF0C46E9E70C4649681E
:103DC000CAE7C41C24F00304A04205D0211A3046DF
:103DD00000F0D0F90130CDD02560D9E770BD00BF2B
:103DE0006025001064250010F8B5074614460E46FD
:103DF00021B91146BDE8F840FFF73EBB22B9FFF7F5
:103E00003FFB25462846F8BD00F066FA84420FD9EC
:103E100021463846FFF730FB05460028F2D03146F0
:103E20002246FFF709FF31463846FFF729FBE9E74D
:103E30003546E7E72DE9F04791461F468A680B694A
:103E400006469342B8BF1346C9F8003091F84320A4
:103E50000C46DDF8208012B10133C9F80030236828
:103E6000990642BFD9F800300233C9F800302568FE
:103E700015F0060507D104F1190AE368D9F8002006
:103E80009B1A9D422ADB94F843302268003318BF06
:103E9000012392062FD404F1430239463046C0472D
:103EA000013022D02368E56803F00603042B18BF15
:103EB0000025D9F800204FF0000908BFAD1AA3680B
:103EC000226908BF25EAE5759342C4BF9B1AED1825
:103ED0001A344D451BD10020BDE8F087012352461E
:103EE00039463046C047013003D14FF0FF30BDE8BE
:103EF000F0870135C1E73020E11881F843005A1CF2
:103F000094F845102244023382F84310C3E701239A
:103F1000224639463046C0470130E6D009F1010952
:103F2000D7E700002DE9F04317460A7E85B06E2AD8
:103F3000984606460C460C9B01F1430E00F0BC80EF
:103F40001AD8632A2ED00AD8002A00F0C880582A2E
:103F500000F08A8004F1420584F842202AE0642AB5
:103F600001D0692AF6D121681A6811F0800F23D098
:103F7000111D1960136827E0732A00F0B48008D877
:103F80006F2A2AD0702AE5D10A6842F020020A601E
:103F900003E0752A21D0782ADCD178226F4984F891
:103FA000452064E01A6801F14205111D196013688B
:103FB00084F842300123A3E011F0400F02F1040124
:103FC0001960D7D0B2F90030002B03DA2D225B4202
:103FD00084F8432062490A2217E02068196810F02B
:103FE000800F03D0081D18600B6806E010F0400F2A
:103FF00001F104001860F7D00B886F2A14BF0A2261
:1040000008225749002084F843006568002DA56008
:10401000C0F29C80206820F004002060002B3FD17B
:10402000002D40F095807546082A0BD12368DA07E9
:1040300008D5236962689A42DEBF302305F8013C47
:1040400005F1FF35AEEB05032361CDF800803B465B
:1040500003AA21463046FFF7EDFE013055D14FF05F
:10406000FF3005B0BDE8F08381F845203C49226867
:10407000186812F0800F00F104051D6001D003687C
:1040800002E05506FBD50388D00744BF42F020026A
:1040900022601BB9226822F0200222601022B1E7C0
:1040A0007546B3FBF2F002FB1033CB5C05F8013D23
:1040B00003460028F5D1B7E708681A6810F0800FAA
:1040C000496904D0101D18601368196007E010F0EA
:1040D000400F02F1040018601368F6D01980002325
:1040E00075462361B1E71A68111D19601568002132
:1040F00062682846FFF792FD08B1401B6060636864
:104100002361002384F843309FE723692A46394618
:104110003046C0470130A2D023689B0707D5002551
:1041200004F11909E368039A9B1A9D4205DBE068D4
:10413000039B9842B8BF184693E701234A46394685
:104140003046C04701308AD00135EBE7002BA7D1BC
:104150000B7804F1420584F8423065E7954B000086
:10416000844B0000024B0A4601461868FFF786B9E7
:10417000EC00001038B50023054C054608462360C6
:10418000FFF76CFA431C02D1236803B12B6038BDE2
:10419000D02F001010B50C46B1F90E1000F0F4F954
:1041A0000028ABBF636DA3891B1823F48053ACBFF9
:1041B0006365A38110BD2DE9F0411F468B8905463B
:1041C000DB050C46164605D502230022B1F90E1078
:1041D00000F070F8A389324623F48053A381B4F928
:1041E0000E103B462846BDE8F04100F041B810B53E
:1041F0000C46B1F90E1000F05DF8431CA38915BF01
:10420000606523F4805343F48053A38118BFA381D6
:1042100010BDB1F90E1000F03DB8034613F8012BA4
:10422000002AFBD1181A0138704710B59AB00091D6
:1042300004916FF00041029105914FF6FF714FF428
:104240000274ADF80E106946ADF80C4000F0A8F805
:104250000022009B1A701AB010BD000013460A46D7
:10426000014602480068FFF7E0BF00BFEC00001005
:1042700038B50546084611460022054C22601A460C
:10428000FFF75AF9431C02D1236803B12B6038BDF4
:10429000D02F001038B50023054C05460846236092
:1042A000FFF72AF9431C02D1236803B12B6038BD04
:1042B000D02F001038B50546084611460022054C9F
:1042C00022601A46FFF79EF9431C02D1236803B10E
:1042D0002B6038BDD02F001051F8040C0028A0F13D
:1042E0000400BCBF0B58C01870472DE9F0478E681A
:1042F00082469E420C469146984635D88A8912F4E9
:10430000906F31D00223256809696F1A656905EB42
:10431000450595FBF3F508F101033B449D4238BF89
:104320001D46530531D52946FFF7A6F8064650B974
:104330000C23CAF80030A3894FF0FF3043F040034C
:10434000A381BDE8F0873A462169FFF775FCA38990
:1043500023F4906343F08003A38126613E442660EA
:1043600046466561ED1BA560464528BF4646494661
:1043700032462068FFF76BFCA36800209B1BA360FC
:1043800023681E442660BDE8F0872A46FFF776F8CA
:1043900006460028E1D121695046FFF771F8C7E7CA
:1043A0002DE9F04F9DB003938B8980461C060D4686
:1043B00016460FD50B696BB94021FFF75DF82860F1
:1043C000286128B90C23C8F800304FF0FF30C4E052
:1043D00040236B610023099320238DF8293030237B
:1043E0004FF0010B8DF82A3037463C4614F8013B5C
:1043F000002B3CD1B7EB060A0BD053463246294678
:104400004046FFF772FF013000F0A280099B534441
:1044100009933B78002B00F09B8000234FF0FF3284
:1044200004930793059206938DF853301A9305224F
:1044300021785048FFF7F2FB671C049BD8B9D906D6
:1044400044BF20228DF853201A0744BF2B228DF839
:10445000532022782A2A16D000210A20079A2746BC
:104460003B780134303B092B50D9C9B111E0252BE1
:10447000C0D02746B9E73F4A3C46801A0BFA00F005
:1044800018430490D3E7039A111D12680391002A80
:1044900001DB079204E0524243F0020307920493C7
:1044A0003B782E2B0DD17B78791C2A2B32D1039BA4
:1044B00002371A1D1B680392002BB8BF4FF0FF3361
:1044C00005932D4C032239782046FFF7A7FB38B11E
:1044D0004023001B03FA00F0049B013703430493BD
:1044E0003978062225487E1C8DF82810FFF796FBA8
:1044F000002835D0224BFBB9039B073323F0070379
:1045000008330393099B4B4409936DE700FB023288
:104510000121A4E700230A24184605930F463A78A0
:104520000131303A092A03D9002BCAD00590C8E7D7
:1045300004FB00200123F1E703AB00932A46114B53
:1045400004A94046AFF30080B0F1FF3F8146D9D1C6
:10455000AB895B063FF539AF09981DB0BDE8F08F18
:1045600003AB00932A46074B04A94046FFF7DAFC49
:10457000EAE700BFA64B0000AC4B0000B04B0000C8
:1045800000000000EB42000038B505460846114621
:104590000022054C22601A46FFF704F8431C02D1A2
:1045A000236803B12B6038BDD02F0010F8B500BFD1
:1045B000F8BC08BC9E467047F8B500BFF8BC08BC04
:1045C0009E46704700000000000000003901000016
:1045D000610100009D010000A50100000000000035
:1045E00000000000FF030000D9040000AD0100003E
:1045F000B50100000000000000000000D30300002F
:10460000A3040000BD010000C5010000000000007F
:1046100000000000F50200008F050000CD01000041
:10462000D50100000000000000000000DD010000D6
:10463000F1010000F901000001020000000000008B
:1046400000000000090200001F02000041020000FB
:10465000490200000000000000000000F509000011
:10466000B50A00007D02000000000000000000000C
:1046700051020000690200006D0200007502000096
:104680006E6F775F647574790063686174746572C6
:1046900000696E7075745F64757479003966306591
:1046A0003938626461363539383139383664646690
:1046B00035336166613761343065343900313161D9
:1046C00062643733316332353933333236316364C0
:1046D0003631383362643132643632393500726FC4
:1046E0007373657269616C5F6D7367732F4C6F676D
:1046F00000306164353166383866633434383932B5
:104700006638633130363834303737363436303007
:104710003500726F7373657269616C5F6D73677377
:104720002F546F706963496E666F00726F737365A3
:104730007269616C5F6D7367732F52657175657314
:1047400074506172616D004D6573736167652066B9
:10475000726F6D206465766963652064726F707036
:1047600065643A206D657373616765206C6172677B
:104770006572207468616E206275666665722E00CF
:1047800063643731363663373463353532633331FA
:104790003166626363326665356137626332383928
:1047A000007374645F6D7367732F54696D650033B4
:1047B00030346133393434393538386337663863E7
:1047C000653264663665383030316335666365005E
:1047D0007374645F6D7367732F55496E7433320061
:1047E000373366636266343662343931393165365F
:1047F00037323930386535303834326138336434E3
:10480000007374645F6D7367732F466C6F617433EC
:1048100032000000570E0000490E0000550E000047
:104820002F686F6D652F74616B657368692F726F88
:10483000732F6C69622F726F735F6C69622F4275A0
:1048400066666572656453657269616C2F42756650
:10485000666572656453657269616C2E6370700081
:10486000257320256420627566666572206F766503
:1048700072777269746520286D61785F6275665F12
:1048800073697A653A202564206578636565646597
:10489000643A20256429210D0A0000000000000070
:1048A00000000000E5320000E5320000BD0E00000F
:1048B000150F0000190E0000250E0000290E000043
:1048C0007F1000009710000011110000D5100000AB
:1048D000D8480000E0120010C5290000212A00007D
:1048E000512A0000612A00003D2A000070696E6DA7
:1048F0006170206D69732D6D617463680070696EFD
:104900006D6170206E6F7420666F756E6420666FC7
:1049100072207065726970686572616C00636F7592
:104920006C64206E6F742070696E6F757400000087
:1049300010020000CC030000E8030000525458208D
:104940006572726F7220636F64653A20307825302B
:1049500038582C207461736B2049443A20307825F4
:104960003038580A001001000F0000000400000059
:10497000041300102413001034130010441300100B
:1049800005000100000200011524000002000000E3
:10499000010000002003000040280010FF76010005
:1049A0005823001011C00920000001400100000040
:1049B00042C009200000014002000000FFFFFFFF8D
:1049C000FFFFFFFF0000000016C0092000000140AB
:1049D0000100000047C00920000001400200000063
:1049E000FFFFFFFFFFFFFFFF0000000001C00920E5
:1049F00000C009400200000003C0092000C00040C0
:104A0000010000000BC009200080094001000000E7
:104A100010C0092000000140010000001AC0092058
:104A200000C009400300000041C00920000001400F
:104A30000200000049C00920008009400200000077
:104A40009DC0092000C0094003000000FFFFFFFFD8
:104A5000FFFFFFFF0000000000C0092000C0094068
:104A60000200000002C0092000C000400100000058
:104A70000AC0092000800940010000000FC0092081
:104A8000000001400100000019C0092000C00940D9
:104A90000300000040C009200000014002000000A7
:104AA00048C0092000800940020000009CC0092085
:104AB00000C0094003000000FFFFFFFFFFFFFFFFF2
:104AC000000000000000000000000000E5320000CF
:104AD000E5320000E9320000FD320000253300001D
:104AE0002933000031330000000000000000000006
:104AF000593300005B330000810E0000A90E000056
:104B00004F70657261746F72206E65775B5D206FA8
:104B10007574206F66206D656D6F72790D0A0000E7
:104B20000000000000000000000000000000000085
:104B30000000000000000000000000000000000075
:104B40000000000000000000000000000000000065
:104B50000000000000000000000000000000000055
:104B60000000000000000000000000000000000045
:104B70000000000000000000000000000000000035
:104B8000F000001030313233343536373839414295
:104B90004344454600303132333435363738396195
:104BA000626364656600232D302B2000686C4C0026
:0C4BB000656667454647000000000000F5
:084BBC0064EBFF7F0100000023
:104BC40000000000651400007914000000000000DB
:104BD40001000000001000005413001000D8B805B4
:104BE400D82F0010F000001000000000404B00001F
:104BF400604B0000204B000000000000000000009B
:104C040000000000000000000000000000000000A0
:104C14000000000000000000000000000000000090
:104C24000000000000000000000000000000000080
:104C34000000000000000000000000000000000070
:104C44000000000000000000F1000000390800002E
:044C5400CD0000008F
:040000030000384978
:00000001FF
